:10005800C2A0D2A07FF47E0112008EC2A07F2C7EA7
:100068004C12008E7FC87E001200B5D2A07FE87EB9
:100078000312008EC2A07F387E4A12008E7FC87E8F
:06008800001200B580CC5F
:1000B500E4FDFCC3ED9FEC9E5015E4FBFA0BBB0081
:0F00C500010AEB647F4A70F50DBD00010C80E469
:0100D4002209
:10008E007C037DE8120003E4FDFCC3ED9FEC9E5063
:10009E0015E4FBFA0BBB00010AEB647F4A70F50D09
:0600AE00BD00010C80E41E
:0100B4002229
:030000000200D526
:0C00D500787FE4F6D8FD75810702005822
:10000300BC000BBE0029EF8DF084FFADF022E4CCE1
:10001300F875F008EF2FFFEE33FEEC33FCEE9DECAA
:10002300984005FCEE9DFE0FD5F0E9E4CEFD22EDF0
:10003300F8F5F0EE8420D21CFEADF075F008EF2F3A
:10004300FFED33FD4007985006D5F0F222C398FD2B
:050053000FD5F0EA22C8
:00000001FF
