:100E0C00252A6400416E676C653A00656E746572E4
:100E1C0020416E676C653A004572726F723A4F757D
:080E2C00742D52616E67650030
:100E820010484423302A4339383742363534413307
:100E92003231085806090600000000000266000010
:0F0EFA00758901758CB7758AFDD28C75A8822217
:03000B00020EA33F
:100EA300C0E0B2A030A009E564F58C85658A8007AF
:0A0EB300E568F58C85698AD0E0320D
:080CE5008F278E268D258C243B
:100CED00752848752902AC28AD29E41201B9E4FB39
:100CFD00FA79C87842120117AB27AA26A925A8248C
:100D0D0012000E1201F28E648F65C3E5299565F50B
:100D1D0069E5289564F568C374FF9565F56574FFFD
:100D2D009564F564C374FF9569F56974FF9568F56D
:010D3D00684D
:010D3E002292
:0E0F18007590017F0A7E00120E3BE4F59022D8
:0E0F26007590017F647E00120E3BE4F5902270
:100D3F00752FFF75300E75310C8C328D338E348FCD
:100D4F00357B007A007924120617120F3BE4FD7FE2
:100D5F0001120EE87BFF7A0E7910120DB87D067F17
:0D0D6F0001120EE87B007A007924020DB815
:060D7C008B248A25892664
:100D8200EFC39408502FEF75F008A42440FF12001F
:100D920003E4F527AB24AA25A926852782758300BB
:100DA200120526FF120F340527E527C3940840E4F5
:050DB2007F8012000328
:010DB7002219
:100C0000E4FFC294D295D296D297209002AF4820AA
:100C10009102AF49209202AF4A209302AF4BD29487
:100C2000D294C295D296D297209002AF4C209102D6
:100C3000AF4D209202AF4E209302AF4FD295D29487
:100C4000D295C296D297209002AF50209102AF5118
:100C5000209202AF52209302AF53D296D294D295F3
:100C6000D296C297209002AF54209102AF552092A5
:0A0C700002AF56209302AF57D2974F
:010C7A002257
:100C7B00E4F529F52AF52BF52C120C008F28E52825
:100C8B00603864236034C3E52C9403E52B94005047
:100C9B0029052CE52C7002052B142424F8A6281208
:100CAB000F40E52C240CFDE4FF120EE8AF28120FC9
:100CBB00347F647E00120E3B80BFE528B423BA74E8
:100CCB0024252CF8E4F6FB7A007924120A2A8E29C3
:090CDB008F2A120F3BAE29AF2A4B
:010CE40022ED
:100AD800120DE3120EFA120F3BE4FDFF120EE87B33
:100AE800FF7A0E7917120DB8120C7B8E228F23C352
:100AF800E52294004032D3E52394B4E522940050D3
:100B0800277D037C00120D3F7D067F01120EE87BD6
:100B1800007A0079587F01120D7C7D097F02120E40
:100B2800E87F01120F348013120F3B7D017F011201
:100B38000EE87BFF7A0E7924120DB8AC22AD23E4BF
:100B48001201B9E4FBFA79347843120117E4FBFA8D
:100B58007920784112000E8F638E628D618C60124D
:0C0B68000CE57FF47E01120E3B020ADE59
:070E34001200037F147E0091
:100E3B00E4FDFCC3ED9FEC9E5015E4FBFA0BBB00ED
:0F0E4B00010AEB647F4A70F50DBD00010C80E4D5
:010E5A002275
:100EBD00A907ED24FF92A6D2A77F0A7E00120E3B52
:080ECD008980120E3BC2A7222E
:07000300C2A5E4FD020EBDE1
:070F3400C2A57D01020EBD04
:050F3B007F010200032C
:050F40007F0E0200031A
:100DE3007F38120E347F04120E347F10120E347FBC
:100DF30008120E34E4FF120E347F0C120E34120F5D
:090E03003B120E377F03020003CD
:100EE800EF7003ED8003ED24404480F52DAF2D0213
:020EF8000003F5
:060DB8008B2C8A2D892E10
:100DBE00E4F52FF530AB2CAA2DA92E853082852F88
:100DCE0083120526FF600D120F340530E53070E5F5
:040DDE00052F80E17C
:010DE20022EE
:10000E00EC4D6011E8497017ED33EC3304600DE4EC
:10001E00FCFFFEFD22E933E8330470F802025E12A3
:10002E00022958046009E4CC2481500628500902A4
:10003E000268284003020265C0E0EB4A7044B980B2
:10004E0006D0E0FB020254EF4E701CBD8008EBFFA1
:10005E00EAFEE9FD80EBE98DF0A4FEE5F00200F783
:10006E00E9CDF9EAFEEBFFEF89F0A4FCE5F0CE89CD
:10007E00F0A42EFFE435F0CD89F0A42DFEE435F08A
:10008E008067EF4E7005BD80D780C3EF8BF0A4ACB8
:10009E00F0EE8BF0A42CFCE435F0F8EF8AF0A42CF3
:1000AE00E5F038FCE433CB8DF0A42CFCE5F03BF806
:1000BE00EE8AF0A42CFCE5F038F8E433CF89F0A4F6
:1000CE002CFCE5F038CF3400CE89F0A42FFFE5F0FC
:1000DE003EFEE433C98DF0A42EFEE5F039CD8AF054
:1000EE00A42FFFE5F03EFEE43DFD33D0E0FB5007CC
:1000FE000BBB000F020268EC2CFCEF33FFEE33FE5D
:06010E00ED33FD0202408A
:10011400020268EC5D046005E85904700302025EA3
:10012400120229580460F6EC4860F2EC7004FDFEFB
:10013400FF22C860DB2481C85009C39860025006BE
:100144000202659850CAF582E9294B4A7005AB82D0
:1001540002025475F0007C1A7880C3EF9BEE9AED8E
:1001640099400DC3EF9BFFEE9AFEED99FDE842F036
:10017400DC23ACF0D0E0FFD0E0FED0E0FDAB822089
:10018400E7101BEB60BAEC2CFCEF33FFEE33FEED13
:1001940033FD020240E803F830E705C0F075F000D3
:1001A400EF2FFFEE33FEED33FD40B830E7C280AAF7
:1001B40075F020800E75F010800575F0087D007EC6
:1001C400007F003392D530D503120565EC3340101F
:1001D400EF33FFEE33FEED33FDEC33FCD5F0ED22CF
:0E01E400E5F0247EA2D513CC92E7CDCEFF220B
:1001F200EDD2E7CD33EC3392D524814006E4FFFE05
:10020200FDFC22FCE4CFCECDCC24E0501174FF8063
:10021200EDC3CC13CCCD13CDCE13CECF13CF047000
:07022200F030D5DE02056596
:1005BB00E543242FF8E6054322782C300702782FE9
:1005CB00E475F00112057302050D2000EB7F2ED2AE
:1005DB00008018EF540F2490D43440D4FF30040B18
:1005EB00EF24BFB41A0050032461FFE544600215E9
:1005FB00440547E5477002054630070D782CE47536
:10060B00F001120573EF020553020E5B7403D20760
:10061B008003E4C207F5438B2C8A2D892EE4F54425
:10062B00F546F547E54460077F201205F680F57522
:10063B0045FFC201C200C202C203C205C206C20804
:10064B001205C4FF700D3007057F00120607AF4778
:10065B00AE4622B4255FC2D5C2041205C4FF24D016
:10066B00B40A00501A75F00A784430D50508B6FF65
:10067B000106C6A426F620D5047002D20380D92425
:10068B00CFB41A00EF5004C2E5D2040208F4D20131
:10069B0080C6D20080C0D20280BCD2D580BAD2052F
:1006AB0080B47F201205F62002077401B544004088
:1006BB00F11205BBFF1205F602062FD208D20680F7
:1006CB00951205BBFB1205BBFA1205BBF94A4B7021
:1006DB000679EB7A097BFF20022EE544602A7E0027
:1006EB008E8275830012052660060EEE654570F04E
:1006FB00C2D5EBC0E0EAC0E0E9C0E0EE120954D08D
:10070B00E0F9D0E0FAD0E0FB12050DFF60AAEBC0D8
:10071B00E0EAC0E0E9C0E01205F6D0E02401F9D030
:10072B00E03400FAD0E0FBE5450460DCD545D98028
:10073B0087D20280A212093760F7E54570010412D7
:10074B000273A945600DE545600914F5451209DEF4
:10075B00EF60F3EA30E702F404C3995077EAF4252B
:10076B00450430E701E404F545800D12093760C1FB
:10077B00EA05452545120273EA7842F630E701E4B3
:10078B00254504D5450420050114120954E4C0E0A5
:10079B001209DE7842E6601320E70714F61205DE35
:1007AB00802204F6D0E014C0E07F001205DEE545A0
:1007BB0060071205D51545800B3005031205D5D002
:1007CB00E002062FD0E00480C512093760A0E54592
:1007DB00041202737842EAF6E54520050260010433
:0507EB00240412095472
:1007F00074FF04C0E01209DE1205DEE545200502A3
:1008000060031205D5D0E0B545E87F451205E878CC
:1008100042E67F2B30E7047F2DF404C0E01205F69A
:10082000D0E075F00A84C0F01205DFD0E01205DFD9
:1008300002062F791080027908C206C2088008D209
:10084000D5790A8004790AC2D5E545047002F545D8
:10085000E4FAFDFEFF1205BBFC7B08200113120524
:10086000BBFD7B1030000A1205BBFE1205BBFF7BEF
:1008700020EC3382D592D55013C3E43000069FFF9D
:10088000E49EFEE42001039DFDE49CFCE4CBF8C261
:1008900001EC700CCFCECDCCE824F8F870F38017C3
:1008A000C3EF33FFEE33FEED33FDEC33FCEB33FBF4
:1008B000994002FB0FD8E9EB300105F8D0E0C448BD
:1008C000B201C0E00AEC4D4E4F78207B0070C2EAC6
:1008D000B5450040BCC0E0120956D0F0D0E0200180
:1008E00004C4C0E0C4B201C0F01205DFD0F0D5F0FE
:1008F000EB02062F12058306CC53083358069D4C95
:1009000006994208374F083F44083F4906B243085A
:10091000455507764607D4450740470A0B5006A1C0
:100920002D06A52E06C82B06A92306C62009F42AE3
:10093000066148000006C0E545B4FF037545061290
:1009400005BBFC1205BBFD1205BBFE1205BBFF7803
:100950003B0202A2790AA2D5200314300509B9107E
:10096000020404B9080104A2D520060250010420A3
:1009700002689202B544005034C0E07F2030031971
:100980007F30A20272067205500F1209ADC202C278
:1009900006C205C2087F30800F300503E9C0E012AF
:1009A00005F6300503D0E0F9D0E0B544CC300517AA
:1009B0007F30B9100C1205F67F583004077F78801D
:1009C00003B908031205F63002057F2D0205F67FF4
:1009D000202008F87F2B2006F322920280CF7F0090
:1009E000B407005005243BF8E6FF22286E756C6CB6
:1009F0002900D2011205BB3001F8C201784430D57C
:100A00000108F60206612D504349581205BB240324
:100A1000B405004001E4900A06931205E7743A1207
:0A0A200005E7D20375440402083311
:10022900E9D2E7C933E833F892D5EDD2E7CD33EC1B
:0702390033FC5002B2D52294
:10024000EC30E7100FBF000C0EBE00080DBD00041F
:100250000BEB6014A2D5EB13FCED92E7FD2274FFCB
:10026000FCFDFEFF22E480F8A2D574FF13FC7D8024
:03027000E480EF38
:10027300F920E72824F950037907E4F42402FB1852
:10028300DBFDE624FB5014E9600DE4F618E604F602
:0F029300B40A08E4F6D9F57401F60A22C2D5229E
:1002A200ED33EC3392D5FA602AB4FF33EDC2E77B2B
:1002B200FF60067A0279C7E4227A0279D020D50457
:1002C2007A0279CB224E614E002B494E46002D49CF
:1002D2004E4600E47A08F608DAFC7B00740722E84E
:1002E200C0E0ECC0E0EDC0E0EEC0E0EFC0E0EA75D7
:1002F200F010A4CAABF075F04DA42BFBE435F0FC72
:10030200EA2410FAEB34C5FBEC34D9FCEDC2E7FF6A
:1003120075F056A4F42411C5F0F434C58FF0A42A64
:10032200E5F03BE43CF620E7141204CDD0E0FFD028
:10033200E0FED0E0FDD0E0FC1201178014F40412BC
:1003420004CDD0E0FFD0E0FED0E0FDD0E0FC120012
:100352000ED0E0F8E6FAEDD2E7CD33EC332482FB9F
:10036200E4C3CF33CFCE33CECD33CD33DBF37B07F4
:1003720075F00A846004F6081B0AE5F0F6088FF0AF
:10038200740AA4FFACF08EF0740AA42CFEACF050F8
:10039200010C8DF0740AA42CFDE435F0F608DBDEC6
:0303A200740722BB
:1003A50002025EE86480F8E933E83360110460F026
:1003B500ED33EC337009E8FCE9FDEAFEEBFF2204BE
:1003C50060DED3EB9FEA9EE99DE8C2E78CF0C2F7B9
:1003D50095F0400CE8CCF8E9CDF9EACEFAEBCFFB85
:1003E50012022985D0F05804700320D5B3E80470B3
:1003F500075002B2D502026892D5EC0460F7E4CC4E
:10040500C0E0C398F8603B94186008400DD0E0FB4D
:10041500020240E4FBFAC9FC8028E830E406E4C99E
:10042500FBE4CAFCE830E305E4C9CACBFCE85407A1
:100435006010F8C3E913F9EA13FAEB13FBEC13FCAC
:10044500D8F130F52FC3E49CFCEF9BFFEE9AFEED4F
:1004550099FDD0E0FBEF4E4D4C701222DB030202FA
:1004650065EC2CFCEF33FFEE33FEED33FDED30E7AD
:10047500EB020240EF2BFFEE3AFEED39FDD0E0FB3B
:1004850050130BBB0003020268ED13FDEE13FEEFE4
:0804950013FFEC13FC0202400E
:10049D003F8000004120000042C80000447A000067
:1004AD00461C400047C35000497424004B189680E9
:1004BD004CBEBC205A0E1BCA6753C21C749DC5AEE0
:1004CD00FB60065407601C23231204FBEB543860B9
:1004DD00091204E71204F612000EECF8EDF9EEFA2B
:1004ED00EFCB22EB1204F680F1543803241C900458
:1004FD009DFE93FC0EEE93FD0EEE930ECE93FF221A
:03000000020B747C
:0C0B7400787FE4F6D8FD758169020BBBA8
:10050D00BB010689828A83E0225002E722BBFE02EC
:09051D00E32289828A83E493221F
:10052600BB010CE58229F582E5833AF583E022508A
:1005360006E92582F8E622BBFE06E92582F8E222D4
:0D054600E58229F582E5833AF583E49322EE
:10055300BB010689828A83F0225002F722BBFE0187
:02056300F32281
:0E056500C3E49FFFE49EFEE49DFDE49CFC22A7
:10057300FAE6FB0808E6F925F0F618E6CA3AF62289
:10058300D083D082F8E4937012740193700DA3A307
:1005930093F8740193F5828883E47374029368601B
:0605A300EFA3A3A380DF1B
:100E5B00EFB40A07740D120E66740A309811A89934
:100E6B00B8130CC2983098FDA899C298B811F630F7
:070E7B0099FDC299F59922CF
:100A2A008B2D8A2E892FAB2DAA2EA92F12050DFFE9
:100A3A00120ED5500D7401252FF52FE4352EF52E03
:100A4A0080E4D200AB2DAA2EA92F12050DFF642B2C
:100A5A006004EFB42D1BAB2D052FE52FAA2E7002D3
:100A6A00052E14F912050D642D6003D38001C3927B
:100A7A0000E4F530F531AB2DAA2EA92F12050DFF92
:100A8A00120F095036AB2DAA2EA92F12050DFF33CE
:100A9A0095E0FEEF24D0FBEE34FFFAAE30AF317CA6
:100AAA00007D0A1205A9EF2BF531EE3AF5307401F3
:100ABA00252FF52FE4352EF52E80BB300006AE30FB
:0E0ACA00AF318009C3E49531FFE49530FE2280
:100B8000020AD8E493A3F8E493A34003F68001F2A9
:100B900008DFF48029E493A3F85407240CC8C33376
:100BA000C4540F4420C8834004F456800146F6DF45
:100BB000E4800B0102040810204080900E82E47E45
:100BC000019360BCA3FF543F30E509541FFEE4933A
:100BD000A360010ECF54C025E060A840B8E493A301
:100BE000FAE493A3F8E493A3C8C582C8CAC583CA2C
:100BF000F0A3C8C582C8CAC583CADFE9DEE780BEE4
:010EA200004F
:1005A900EF8DF0A4A8F0CF8CF0A428CE8DF0A42E66
:0205B900FE2220
:0F0F0900EFC394304007EF943A50028001C322A7
:100ED500EFC394094005EF940E4003BF2003D38070
:030EE50001C32224
:00000001FF
